{
  "_format": "hh-sol-artifact-1",
  "contractName": "ResQ",
  "sourceName": "contracts/ResQ.sol",
  "abi": [
    {
      "inputs": [],
      "stateMutability": "nonpayable",
      "type": "constructor"
    },
    {
      "anonymous": false,
      "inputs": [
        {
          "indexed": true,
          "internalType": "address",
          "name": "wallet",
          "type": "address"
        },
        {
          "indexed": false,
          "internalType": "string",
          "name": "did",
          "type": "string"
        }
      ],
      "name": "BeneficiaryRegistered",
      "type": "event"
    },
    {
      "anonymous": false,
      "inputs": [
        {
          "indexed": true,
          "internalType": "address",
          "name": "donor",
          "type": "address"
        },
        {
          "indexed": false,
          "internalType": "uint256",
          "name": "amount",
          "type": "uint256"
        }
      ],
      "name": "DonorDeposit",
      "type": "event"
    },
    {
      "anonymous": false,
      "inputs": [
        {
          "indexed": true,
          "internalType": "address",
          "name": "wallet",
          "type": "address"
        },
        {
          "indexed": false,
          "internalType": "string",
          "name": "did",
          "type": "string"
        }
      ],
      "name": "DonorRegistered",
      "type": "event"
    },
    {
      "anonymous": false,
      "inputs": [
        {
          "indexed": true,
          "internalType": "address",
          "name": "beneficiary",
          "type": "address"
        },
        {
          "indexed": false,
          "internalType": "uint256",
          "name": "amount",
          "type": "uint256"
        }
      ],
      "name": "FundsDisbursed",
      "type": "event"
    },
    {
      "inputs": [],
      "name": "admin",
      "outputs": [
        {
          "internalType": "address",
          "name": "",
          "type": "address"
        }
      ],
      "stateMutability": "view",
      "type": "function"
    },
    {
      "inputs": [
        {
          "internalType": "address",
          "name": "",
          "type": "address"
        }
      ],
      "name": "beneficiaries",
      "outputs": [
        {
          "internalType": "string",
          "name": "did",
          "type": "string"
        },
        {
          "internalType": "string",
          "name": "uid",
          "type": "string"
        },
        {
          "internalType": "address",
          "name": "wallet",
          "type": "address"
        },
        {
          "internalType": "uint256",
          "name": "fundsReceived",
          "type": "uint256"
        }
      ],
      "stateMutability": "view",
      "type": "function"
    },
    {
      "inputs": [],
      "name": "depositFunds",
      "outputs": [],
      "stateMutability": "payable",
      "type": "function"
    },
    {
      "inputs": [
        {
          "internalType": "address",
          "name": "_wallet",
          "type": "address"
        },
        {
          "internalType": "uint256",
          "name": "_amount",
          "type": "uint256"
        }
      ],
      "name": "disburseFunds",
      "outputs": [],
      "stateMutability": "nonpayable",
      "type": "function"
    },
    {
      "inputs": [
        {
          "internalType": "address",
          "name": "",
          "type": "address"
        }
      ],
      "name": "donors",
      "outputs": [
        {
          "internalType": "string",
          "name": "did",
          "type": "string"
        },
        {
          "internalType": "string",
          "name": "aadhaar",
          "type": "string"
        },
        {
          "internalType": "address",
          "name": "wallet",
          "type": "address"
        },
        {
          "internalType": "uint256",
          "name": "balance",
          "type": "uint256"
        }
      ],
      "stateMutability": "view",
      "type": "function"
    },
    {
      "inputs": [
        {
          "internalType": "address",
          "name": "_wallet",
          "type": "address"
        }
      ],
      "name": "getBeneficiaryDetails",
      "outputs": [
        {
          "internalType": "string",
          "name": "",
          "type": "string"
        },
        {
          "internalType": "string",
          "name": "",
          "type": "string"
        },
        {
          "internalType": "uint256",
          "name": "",
          "type": "uint256"
        }
      ],
      "stateMutability": "view",
      "type": "function"
    },
    {
      "inputs": [],
      "name": "getContractBalance",
      "outputs": [
        {
          "internalType": "uint256",
          "name": "",
          "type": "uint256"
        }
      ],
      "stateMutability": "view",
      "type": "function"
    },
    {
      "inputs": [
        {
          "internalType": "address",
          "name": "_wallet",
          "type": "address"
        }
      ],
      "name": "getDonorDetails",
      "outputs": [
        {
          "internalType": "string",
          "name": "",
          "type": "string"
        },
        {
          "internalType": "string",
          "name": "",
          "type": "string"
        },
        {
          "internalType": "uint256",
          "name": "",
          "type": "uint256"
        }
      ],
      "stateMutability": "view",
      "type": "function"
    },
    {
      "inputs": [
        {
          "internalType": "address",
          "name": "_wallet",
          "type": "address"
        },
        {
          "internalType": "string",
          "name": "_did",
          "type": "string"
        },
        {
          "internalType": "string",
          "name": "_uid",
          "type": "string"
        }
      ],
      "name": "registerBeneficiary",
      "outputs": [],
      "stateMutability": "nonpayable",
      "type": "function"
    },
    {
      "inputs": [
        {
          "internalType": "address",
          "name": "_wallet",
          "type": "address"
        },
        {
          "internalType": "string",
          "name": "_did",
          "type": "string"
        },
        {
          "internalType": "string",
          "name": "_aadhaar",
          "type": "string"
        }
      ],
      "name": "registerDonor",
      "outputs": [],
      "stateMutability": "nonpayable",
      "type": "function"
    }
  ],
  "bytecode": "0x6080604052348015600f57600080fd5b5033600260006101000a81548173ffffffffffffffffffffffffffffffffffffffff021916908373ffffffffffffffffffffffffffffffffffffffff160217905550611fd1806100606000396000f3fe6080604052600436106100915760003560e01c8063afcb67d311610059578063afcb67d314610192578063b1214bb9146101d1578063ca0cdea8146101fa578063e2c41dbc1461023a578063f851a4401461024457610091565b806301567739146100965780634c3d4f1b146100d657806353d0609d146101155780636f9fb98a1461013e578063ad48e2a214610169575b600080fd5b3480156100a257600080fd5b506100bd60048036038101906100b891906113d5565b61026f565b6040516100cd94939291906114ba565b60405180910390f35b3480156100e257600080fd5b506100fd60048036038101906100f891906113d5565b6103cf565b60405161010c9392919061150d565b60405180910390f35b34801561012157600080fd5b5061013c60048036038101906101379190611687565b61068c565b005b34801561014a57600080fd5b50610153610935565b6040516101609190611712565b60405180910390f35b34801561017557600080fd5b50610190600480360381019061018b9190611759565b61093d565b005b34801561019e57600080fd5b506101b960048036038101906101b491906113d5565b610b84565b6040516101c89392919061150d565b60405180910390f35b3480156101dd57600080fd5b506101f860048036038101906101f39190611687565b610e45565b005b34801561020657600080fd5b50610221600480360381019061021c91906113d5565b6110f1565b60405161023194939291906114ba565b60405180910390f35b610242611251565b005b34801561025057600080fd5b5061025961133d565b6040516102669190611799565b60405180910390f35b6000602052806000526040600020600091509050806000018054610292906117e3565b80601f01602080910402602001604051908101604052809291908181526020018280546102be906117e3565b801561030b5780601f106102e05761010080835404028352916020019161030b565b820191906000526020600020905b8154815290600101906020018083116102ee57829003601f168201915b505050505090806001018054610320906117e3565b80601f016020809104026020016040519081016040528092919081815260200182805461034c906117e3565b80156103995780601f1061036e57610100808354040283529160200191610399565b820191906000526020600020905b81548152906001019060200180831161037c57829003601f168201915b5050505050908060020160009054906101000a900473ffffffffffffffffffffffffffffffffffffffff16908060030154905084565b60608060008073ffffffffffffffffffffffffffffffffffffffff166000808673ffffffffffffffffffffffffffffffffffffffff1673ffffffffffffffffffffffffffffffffffffffff16815260200190815260200160002060020160009054906101000a900473ffffffffffffffffffffffffffffffffffffffff1673ffffffffffffffffffffffffffffffffffffffff16036104a3576040517f08c379a000000000000000000000000000000000000000000000000000000000815260040161049a90611860565b60405180910390fd5b6000808573ffffffffffffffffffffffffffffffffffffffff1673ffffffffffffffffffffffffffffffffffffffff1681526020019081526020016000206000016000808673ffffffffffffffffffffffffffffffffffffffff1673ffffffffffffffffffffffffffffffffffffffff1681526020019081526020016000206001016000808773ffffffffffffffffffffffffffffffffffffffff1673ffffffffffffffffffffffffffffffffffffffff16815260200190815260200160002060030154828054610573906117e3565b80601f016020809104026020016040519081016040528092919081815260200182805461059f906117e3565b80156105ec5780601f106105c1576101008083540402835291602001916105ec565b820191906000526020600020905b8154815290600101906020018083116105cf57829003601f168201915b505050505092508180546105ff906117e3565b80601f016020809104026020016040519081016040528092919081815260200182805461062b906117e3565b80156106785780601f1061064d57610100808354040283529160200191610678565b820191906000526020600020905b81548152906001019060200180831161065b57829003601f168201915b505050505091509250925092509193909250565b60008060003373ffffffffffffffffffffffffffffffffffffffff1673ffffffffffffffffffffffffffffffffffffffff16815260200190815260200160002060000180546106da906117e3565b90501461071c576040517f08c379a0000000000000000000000000000000000000000000000000000000008152600401610713906118f2565b60405180910390fd5b600073ffffffffffffffffffffffffffffffffffffffff166000808573ffffffffffffffffffffffffffffffffffffffff1673ffffffffffffffffffffffffffffffffffffffff16815260200190815260200160002060020160009054906101000a900473ffffffffffffffffffffffffffffffffffffffff1673ffffffffffffffffffffffffffffffffffffffff16146107ec576040517f08c379a00000000000000000000000000000000000000000000000000000000081526004016107e39061195e565b60405180910390fd5b60405180608001604052808381526020018281526020018473ffffffffffffffffffffffffffffffffffffffff16815260200160008152506000808573ffffffffffffffffffffffffffffffffffffffff1673ffffffffffffffffffffffffffffffffffffffff16815260200190815260200160002060008201518160000190816108779190611b2a565b50602082015181600101908161088d9190611b2a565b5060408201518160020160006101000a81548173ffffffffffffffffffffffffffffffffffffffff021916908373ffffffffffffffffffffffffffffffffffffffff160217905550606082015181600301559050508273ffffffffffffffffffffffffffffffffffffffff167ffdc4f7be6cc06cf5e4516eceda7bda56d52dde644c3d1ae4e1b04bf71880e5dd836040516109289190611bfc565b60405180910390a2505050565b600047905090565b60008111610980576040517f08c379a000000000000000000000000000000000000000000000000000000000815260040161097790611c6a565b60405180910390fd5b804710156109c3576040517f08c379a00000000000000000000000000000000000000000000000000000000081526004016109ba90611cd6565b60405180910390fd5b600073ffffffffffffffffffffffffffffffffffffffff166000808473ffffffffffffffffffffffffffffffffffffffff1673ffffffffffffffffffffffffffffffffffffffff16815260200190815260200160002060020160009054906101000a900473ffffffffffffffffffffffffffffffffffffffff1673ffffffffffffffffffffffffffffffffffffffff1603610a93576040517f08c379a0000000000000000000000000000000000000000000000000000000008152600401610a8a90611d42565b60405180910390fd5b8173ffffffffffffffffffffffffffffffffffffffff166108fc829081150290604051600060405180830381858888f19350505050158015610ad9573d6000803e3d6000fd5b50806000808473ffffffffffffffffffffffffffffffffffffffff1673ffffffffffffffffffffffffffffffffffffffff1681526020019081526020016000206003016000828254610b2b9190611d91565b925050819055508173ffffffffffffffffffffffffffffffffffffffff167f782e29f84677015232f6d7f6802ffa1526db4d9800d3bdc9516a111f240e808682604051610b789190611712565b60405180910390a25050565b60608060008073ffffffffffffffffffffffffffffffffffffffff16600160008673ffffffffffffffffffffffffffffffffffffffff1673ffffffffffffffffffffffffffffffffffffffff16815260200190815260200160002060020160009054906101000a900473ffffffffffffffffffffffffffffffffffffffff1673ffffffffffffffffffffffffffffffffffffffff1603610c59576040517f08c379a0000000000000000000000000000000000000000000000000000000008152600401610c5090611e11565b60405180910390fd5b600160008573ffffffffffffffffffffffffffffffffffffffff1673ffffffffffffffffffffffffffffffffffffffff168152602001908152602001600020600001600160008673ffffffffffffffffffffffffffffffffffffffff1673ffffffffffffffffffffffffffffffffffffffff168152602001908152602001600020600101600160008773ffffffffffffffffffffffffffffffffffffffff1673ffffffffffffffffffffffffffffffffffffffff16815260200190815260200160002060030154828054610d2c906117e3565b80601f0160208091040260200160405190810160405280929190818152602001828054610d58906117e3565b8015610da55780601f10610d7a57610100808354040283529160200191610da5565b820191906000526020600020905b815481529060010190602001808311610d8857829003601f168201915b50505050509250818054610db8906117e3565b80601f0160208091040260200160405190810160405280929190818152602001828054610de4906117e3565b8015610e315780601f10610e0657610100808354040283529160200191610e31565b820191906000526020600020905b815481529060010190602001808311610e1457829003601f168201915b505050505091509250925092509193909250565b6000600160003373ffffffffffffffffffffffffffffffffffffffff1673ffffffffffffffffffffffffffffffffffffffff1681526020019081526020016000206000018054610e94906117e3565b905014610ed6576040517f08c379a0000000000000000000000000000000000000000000000000000000008152600401610ecd90611e7d565b60405180910390fd5b600073ffffffffffffffffffffffffffffffffffffffff16600160008573ffffffffffffffffffffffffffffffffffffffff1673ffffffffffffffffffffffffffffffffffffffff16815260200190815260200160002060020160009054906101000a900473ffffffffffffffffffffffffffffffffffffffff1673ffffffffffffffffffffffffffffffffffffffff1614610fa7576040517f08c379a0000000000000000000000000000000000000000000000000000000008152600401610f9e90611ee9565b60405180910390fd5b60405180608001604052808381526020018281526020018473ffffffffffffffffffffffffffffffffffffffff1681526020016000815250600160008573ffffffffffffffffffffffffffffffffffffffff1673ffffffffffffffffffffffffffffffffffffffff16815260200190815260200160002060008201518160000190816110339190611b2a565b5060208201518160010190816110499190611b2a565b5060408201518160020160006101000a81548173ffffffffffffffffffffffffffffffffffffffff021916908373ffffffffffffffffffffffffffffffffffffffff160217905550606082015181600301559050508273ffffffffffffffffffffffffffffffffffffffff167ff6bba8a2d47514955cc8e64ea9127b51d5615832d1fbd20ec40275f0876cfcbf836040516110e49190611bfc565b60405180910390a2505050565b6001602052806000526040600020600091509050806000018054611114906117e3565b80601f0160208091040260200160405190810160405280929190818152602001828054611140906117e3565b801561118d5780601f106111625761010080835404028352916020019161118d565b820191906000526020600020905b81548152906001019060200180831161117057829003601f168201915b5050505050908060010180546111a2906117e3565b80601f01602080910402602001604051908101604052809291908181526020018280546111ce906117e3565b801561121b5780601f106111f05761010080835404028352916020019161121b565b820191906000526020600020905b8154815290600101906020018083116111fe57829003601f168201915b5050505050908060020160009054906101000a900473ffffffffffffffffffffffffffffffffffffffff16908060030154905084565b60003411611294576040517f08c379a000000000000000000000000000000000000000000000000000000000815260040161128b90611f7b565b60405180910390fd5b34600160003373ffffffffffffffffffffffffffffffffffffffff1673ffffffffffffffffffffffffffffffffffffffff16815260200190815260200160002060030160008282546112e69190611d91565b925050819055503373ffffffffffffffffffffffffffffffffffffffff167f7f2c39bc4466bb4a90ee672cd5bd28b884c0ce085a99d8af14c24869de7109fd346040516113339190611712565b60405180910390a2565b600260009054906101000a900473ffffffffffffffffffffffffffffffffffffffff1681565b6000604051905090565b600080fd5b600080fd5b600073ffffffffffffffffffffffffffffffffffffffff82169050919050565b60006113a282611377565b9050919050565b6113b281611397565b81146113bd57600080fd5b50565b6000813590506113cf816113a9565b92915050565b6000602082840312156113eb576113ea61136d565b5b60006113f9848285016113c0565b91505092915050565b600081519050919050565b600082825260208201905092915050565b60005b8381101561143c578082015181840152602081019050611421565b60008484015250505050565b6000601f19601f8301169050919050565b600061146482611402565b61146e818561140d565b935061147e81856020860161141e565b61148781611448565b840191505092915050565b61149b81611397565b82525050565b6000819050919050565b6114b4816114a1565b82525050565b600060808201905081810360008301526114d48187611459565b905081810360208301526114e88186611459565b90506114f76040830185611492565b61150460608301846114ab565b95945050505050565b600060608201905081810360008301526115278186611459565b9050818103602083015261153b8185611459565b905061154a60408301846114ab565b949350505050565b600080fd5b600080fd5b7f4e487b7100000000000000000000000000000000000000000000000000000000600052604160045260246000fd5b61159482611448565b810181811067ffffffffffffffff821117156115b3576115b261155c565b5b80604052505050565b60006115c6611363565b90506115d2828261158b565b919050565b600067ffffffffffffffff8211156115f2576115f161155c565b5b6115fb82611448565b9050602081019050919050565b82818337600083830152505050565b600061162a611625846115d7565b6115bc565b90508281526020810184848401111561164657611645611557565b5b611651848285611608565b509392505050565b600082601f83011261166e5761166d611552565b5b813561167e848260208601611617565b91505092915050565b6000806000606084860312156116a05761169f61136d565b5b60006116ae868287016113c0565b935050602084013567ffffffffffffffff8111156116cf576116ce611372565b5b6116db86828701611659565b925050604084013567ffffffffffffffff8111156116fc576116fb611372565b5b61170886828701611659565b9150509250925092565b600060208201905061172760008301846114ab565b92915050565b611736816114a1565b811461174157600080fd5b50565b6000813590506117538161172d565b92915050565b600080604083850312156117705761176f61136d565b5b600061177e858286016113c0565b925050602061178f85828601611744565b9150509250929050565b60006020820190506117ae6000830184611492565b92915050565b7f4e487b7100000000000000000000000000000000000000000000000000000000600052602260045260246000fd5b600060028204905060018216806117fb57607f821691505b60208210810361180e5761180d6117b4565b5b50919050565b7f42656e6566696369617279206e6f7420666f756e640000000000000000000000600082015250565b600061184a60158361140d565b915061185582611814565b602082019050919050565b600060208201905081810360008301526118798161183d565b9050919050565b7f416c726561647920726567697374657265642061732042656e6566696369617260008201527f7900000000000000000000000000000000000000000000000000000000000000602082015250565b60006118dc60218361140d565b91506118e782611880565b604082019050919050565b6000602082019050818103600083015261190b816118cf565b9050919050565b7f42656e656669636961727920616c726561647920657869737473000000000000600082015250565b6000611948601a8361140d565b915061195382611912565b602082019050919050565b600060208201905081810360008301526119778161193b565b9050919050565b60008190508160005260206000209050919050565b60006020601f8301049050919050565b600082821b905092915050565b6000600883026119e07fffffffffffffffffffffffffffffffffffffffffffffffffffffffffffffffff826119a3565b6119ea86836119a3565b95508019841693508086168417925050509392505050565b6000819050919050565b6000611a27611a22611a1d846114a1565b611a02565b6114a1565b9050919050565b6000819050919050565b611a4183611a0c565b611a55611a4d82611a2e565b8484546119b0565b825550505050565b600090565b611a6a611a5d565b611a75818484611a38565b505050565b5b81811015611a9957611a8e600082611a62565b600181019050611a7b565b5050565b601f821115611ade57611aaf8161197e565b611ab884611993565b81016020851015611ac7578190505b611adb611ad385611993565b830182611a7a565b50505b505050565b600082821c905092915050565b6000611b0160001984600802611ae3565b1980831691505092915050565b6000611b1a8383611af0565b9150826002028217905092915050565b611b3382611402565b67ffffffffffffffff811115611b4c57611b4b61155c565b5b611b5682546117e3565b611b61828285611a9d565b600060209050601f831160018114611b945760008415611b82578287015190505b611b8c8582611b0e565b865550611bf4565b601f198416611ba28661197e565b60005b82811015611bca57848901518255600182019150602085019450602081019050611ba5565b86831015611be75784890151611be3601f891682611af0565b8355505b6001600288020188555050505b505050505050565b60006020820190508181036000830152611c168184611459565b905092915050565b7f416d6f756e74206d7573742062652067726561746572207468616e207a65726f600082015250565b6000611c5460208361140d565b9150611c5f82611c1e565b602082019050919050565b60006020820190508181036000830152611c8381611c47565b9050919050565b7f496e73756666696369656e742066756e647320696e20636f6e74726163740000600082015250565b6000611cc0601e8361140d565b9150611ccb82611c8a565b602082019050919050565b60006020820190508181036000830152611cef81611cb3565b9050919050565b7f42656e6566696369617279206e6f742072656769737465726564000000000000600082015250565b6000611d2c601a8361140d565b9150611d3782611cf6565b602082019050919050565b60006020820190508181036000830152611d5b81611d1f565b9050919050565b7f4e487b7100000000000000000000000000000000000000000000000000000000600052601160045260246000fd5b6000611d9c826114a1565b9150611da7836114a1565b9250828201905080821115611dbf57611dbe611d62565b5b92915050565b7f446f6e6f72206e6f7420666f756e640000000000000000000000000000000000600082015250565b6000611dfb600f8361140d565b9150611e0682611dc5565b602082019050919050565b60006020820190508181036000830152611e2a81611dee565b9050919050565b7f416c7265616479207265676973746572656420617320446f6e6f720000000000600082015250565b6000611e67601b8361140d565b9150611e7282611e31565b602082019050919050565b60006020820190508181036000830152611e9681611e5a565b9050919050565b7f446f6e6f7220616c726561647920657869737473000000000000000000000000600082015250565b6000611ed360148361140d565b9150611ede82611e9d565b602082019050919050565b60006020820190508181036000830152611f0281611ec6565b9050919050565b7f4465706f73697420616d6f756e74206d7573742062652067726561746572207460008201527f68616e207a65726f000000000000000000000000000000000000000000000000602082015250565b6000611f6560288361140d565b9150611f7082611f09565b604082019050919050565b60006020820190508181036000830152611f9481611f58565b905091905056fea2646970667358221220e1c02bc01fd99da646412665d46a6d8d7be566fefc49c4d5b24d6e78c7cfd05d64736f6c634300081c0033",
  "linkReferences": {},
  "deployedLinkReferences": {}
}